{
  "_format": "hh-sol-artifact-1",
  "contractName": "IBBA",
  "sourceName": "contracts/Minting.sol",
  "abi": [
    {
      "inputs": [
        {
          "internalType": "address",
          "name": "_treasuryWallet",
          "type": "address"
        },
        {
          "internalType": "address",
          "name": "_admin",
          "type": "address"
        }
      ],
      "stateMutability": "nonpayable",
      "type": "constructor"
    },
    {
      "anonymous": false,
      "inputs": [
        {
          "indexed": false,
          "internalType": "uint256[]",
          "name": "alreadyMintedNFTs",
          "type": "uint256[]"
        }
      ],
      "name": "AlreadyMintedNFTs",
      "type": "event"
    },
    {
      "anonymous": false,
      "inputs": [
        {
          "indexed": true,
          "internalType": "address",
          "name": "owner",
          "type": "address"
        },
        {
          "indexed": true,
          "internalType": "address",
          "name": "approved",
          "type": "address"
        },
        {
          "indexed": true,
          "internalType": "uint256",
          "name": "tokenId",
          "type": "uint256"
        }
      ],
      "name": "Approval",
      "type": "event"
    },
    {
      "anonymous": false,
      "inputs": [
        {
          "indexed": true,
          "internalType": "address",
          "name": "owner",
          "type": "address"
        },
        {
          "indexed": true,
          "internalType": "address",
          "name": "operator",
          "type": "address"
        },
        {
          "indexed": false,
          "internalType": "bool",
          "name": "approved",
          "type": "bool"
        }
      ],
      "name": "ApprovalForAll",
      "type": "event"
    },
    {
      "anonymous": false,
      "inputs": [
        {
          "indexed": false,
          "internalType": "uint256",
          "name": "_fromTokenId",
          "type": "uint256"
        },
        {
          "indexed": false,
          "internalType": "uint256",
          "name": "_toTokenId",
          "type": "uint256"
        }
      ],
      "name": "BatchMetadataUpdate",
      "type": "event"
    },
    {
      "anonymous": false,
      "inputs": [
        {
          "indexed": true,
          "internalType": "address",
          "name": "treasuryAddress",
          "type": "address"
        },
        {
          "indexed": false,
          "internalType": "uint256[]",
          "name": "tokenIds",
          "type": "uint256[]"
        }
      ],
      "name": "BatchMinted",
      "type": "event"
    },
    {
      "anonymous": false,
      "inputs": [
        {
          "indexed": false,
          "internalType": "string",
          "name": "newMetadataPrefixURI",
          "type": "string"
        }
      ],
      "name": "ChangeMetadataPrefix",
      "type": "event"
    },
    {
      "anonymous": false,
      "inputs": [
        {
          "indexed": false,
          "internalType": "string",
          "name": "newMetadataSuffixURI",
          "type": "string"
        }
      ],
      "name": "ChangeMetadataSuffix",
      "type": "event"
    },
    {
      "anonymous": false,
      "inputs": [
        {
          "indexed": false,
          "internalType": "address",
          "name": "newTreasuryWallet",
          "type": "address"
        }
      ],
      "name": "ChangeTreasuryWallet",
      "type": "event"
    },
    {
      "anonymous": false,
      "inputs": [
        {
          "indexed": false,
          "internalType": "uint256",
          "name": "_tokenId",
          "type": "uint256"
        }
      ],
      "name": "MetadataUpdate",
      "type": "event"
    },
    {
      "anonymous": false,
      "inputs": [
        {
          "indexed": false,
          "internalType": "address",
          "name": "treasuryWallet",
          "type": "address"
        },
        {
          "indexed": false,
          "internalType": "uint256",
          "name": "nftId",
          "type": "uint256"
        }
      ],
      "name": "MintNFT",
      "type": "event"
    },
    {
      "anonymous": false,
      "inputs": [
        {
          "indexed": true,
          "internalType": "address",
          "name": "previousOwner",
          "type": "address"
        },
        {
          "indexed": true,
          "internalType": "address",
          "name": "newOwner",
          "type": "address"
        }
      ],
      "name": "OwnershipTransferred",
      "type": "event"
    },
    {
      "anonymous": false,
      "inputs": [
        {
          "indexed": false,
          "internalType": "address",
          "name": "account",
          "type": "address"
        }
      ],
      "name": "Paused",
      "type": "event"
    },
    {
      "anonymous": false,
      "inputs": [
        {
          "indexed": true,
          "internalType": "address",
          "name": "from",
          "type": "address"
        },
        {
          "indexed": true,
          "internalType": "address",
          "name": "to",
          "type": "address"
        },
        {
          "indexed": true,
          "internalType": "uint256",
          "name": "tokenId",
          "type": "uint256"
        }
      ],
      "name": "Transfer",
      "type": "event"
    },
    {
      "anonymous": false,
      "inputs": [
        {
          "indexed": false,
          "internalType": "address",
          "name": "newOwner",
          "type": "address"
        }
      ],
      "name": "TransferOwnership",
      "type": "event"
    },
    {
      "anonymous": false,
      "inputs": [
        {
          "indexed": false,
          "internalType": "address",
          "name": "account",
          "type": "address"
        }
      ],
      "name": "Unpaused",
      "type": "event"
    },
    {
      "inputs": [
        {
          "internalType": "address",
          "name": "to",
          "type": "address"
        },
        {
          "internalType": "uint256",
          "name": "tokenId",
          "type": "uint256"
        }
      ],
      "name": "approve",
      "outputs": [],
      "stateMutability": "nonpayable",
      "type": "function"
    },
    {
      "inputs": [
        {
          "internalType": "address",
          "name": "owner",
          "type": "address"
        }
      ],
      "name": "balanceOf",
      "outputs": [
        {
          "internalType": "uint256",
          "name": "",
          "type": "uint256"
        }
      ],
      "stateMutability": "view",
      "type": "function"
    },
    {
      "inputs": [
        {
          "internalType": "uint256",
          "name": "numberOfNFTs",
          "type": "uint256"
        },
        {
          "internalType": "uint256[]",
          "name": "tokenIds",
          "type": "uint256[]"
        }
      ],
      "name": "batchMintingByPassingTokenIds",
      "outputs": [
        {
          "internalType": "bool",
          "name": "",
          "type": "bool"
        }
      ],
      "stateMutability": "nonpayable",
      "type": "function"
    },
    {
      "inputs": [
        {
          "internalType": "uint256",
          "name": "tokenId",
          "type": "uint256"
        }
      ],
      "name": "burn",
      "outputs": [],
      "stateMutability": "nonpayable",
      "type": "function"
    },
    {
      "inputs": [
        {
          "internalType": "string",
          "name": "newMetaDataPrefixURI",
          "type": "string"
        }
      ],
      "name": "changeMetaDataPrefixURI",
      "outputs": [
        {
          "internalType": "string",
          "name": "",
          "type": "string"
        }
      ],
      "stateMutability": "nonpayable",
      "type": "function"
    },
    {
      "inputs": [
        {
          "internalType": "string",
          "name": "newMetadataSuffixURI",
          "type": "string"
        }
      ],
      "name": "changeMetaDataSuffixURI",
      "outputs": [
        {
          "internalType": "string",
          "name": "",
          "type": "string"
        }
      ],
      "stateMutability": "nonpayable",
      "type": "function"
    },
    {
      "inputs": [
        {
          "internalType": "address",
          "name": "newOwner",
          "type": "address"
        }
      ],
      "name": "changeOwnership",
      "outputs": [
        {
          "internalType": "address",
          "name": "",
          "type": "address"
        }
      ],
      "stateMutability": "nonpayable",
      "type": "function"
    },
    {
      "inputs": [
        {
          "internalType": "address",
          "name": "newTreasuryWallet",
          "type": "address"
        }
      ],
      "name": "changeTreasuryWallet",
      "outputs": [
        {
          "internalType": "address",
          "name": "",
          "type": "address"
        }
      ],
      "stateMutability": "nonpayable",
      "type": "function"
    },
    {
      "inputs": [
        {
          "internalType": "string",
          "name": "a",
          "type": "string"
        },
        {
          "internalType": "string",
          "name": "b",
          "type": "string"
        },
        {
          "internalType": "string",
          "name": "c",
          "type": "string"
        }
      ],
      "name": "concatenateStrings",
      "outputs": [
        {
          "internalType": "string",
          "name": "",
          "type": "string"
        }
      ],
      "stateMutability": "pure",
      "type": "function"
    },
    {
      "inputs": [
        {
          "internalType": "uint256",
          "name": "tokenId",
          "type": "uint256"
        }
      ],
      "name": "getApproved",
      "outputs": [
        {
          "internalType": "address",
          "name": "",
          "type": "address"
        }
      ],
      "stateMutability": "view",
      "type": "function"
    },
    {
      "inputs": [],
      "name": "getMetadataPrefixURI",
      "outputs": [
        {
          "internalType": "string",
          "name": "",
          "type": "string"
        }
      ],
      "stateMutability": "view",
      "type": "function"
    },
    {
      "inputs": [],
      "name": "getMetadataSuffixURI",
      "outputs": [
        {
          "internalType": "string",
          "name": "",
          "type": "string"
        }
      ],
      "stateMutability": "view",
      "type": "function"
    },
    {
      "inputs": [
        {
          "internalType": "address",
          "name": "owner",
          "type": "address"
        },
        {
          "internalType": "address",
          "name": "operator",
          "type": "address"
        }
      ],
      "name": "isApprovedForAll",
      "outputs": [
        {
          "internalType": "bool",
          "name": "",
          "type": "bool"
        }
      ],
      "stateMutability": "view",
      "type": "function"
    },
    {
      "inputs": [
        {
          "internalType": "uint256",
          "name": "tokenId",
          "type": "uint256"
        },
        {
          "internalType": "address",
          "name": "to",
          "type": "address"
        }
      ],
      "name": "mintingByTokenId",
      "outputs": [
        {
          "internalType": "uint256",
          "name": "",
          "type": "uint256"
        },
        {
          "internalType": "address",
          "name": "",
          "type": "address"
        },
        {
          "internalType": "string",
          "name": "",
          "type": "string"
        }
      ],
      "stateMutability": "nonpayable",
      "type": "function"
    },
    {
      "inputs": [],
      "name": "name",
      "outputs": [
        {
          "internalType": "string",
          "name": "",
          "type": "string"
        }
      ],
      "stateMutability": "view",
      "type": "function"
    },
    {
      "inputs": [
        {
          "internalType": "uint256",
          "name": "",
          "type": "uint256"
        }
      ],
      "name": "nftData",
      "outputs": [
        {
          "internalType": "uint256",
          "name": "tokenId",
          "type": "uint256"
        },
        {
          "internalType": "string",
          "name": "metadata",
          "type": "string"
        },
        {
          "internalType": "bool",
          "name": "isBurnt",
          "type": "bool"
        }
      ],
      "stateMutability": "view",
      "type": "function"
    },
    {
      "inputs": [],
      "name": "owner",
      "outputs": [
        {
          "internalType": "address",
          "name": "",
          "type": "address"
        }
      ],
      "stateMutability": "view",
      "type": "function"
    },
    {
      "inputs": [
        {
          "internalType": "uint256",
          "name": "tokenId",
          "type": "uint256"
        }
      ],
      "name": "ownerOf",
      "outputs": [
        {
          "internalType": "address",
          "name": "",
          "type": "address"
        }
      ],
      "stateMutability": "view",
      "type": "function"
    },
    {
      "inputs": [],
      "name": "pause",
      "outputs": [],
      "stateMutability": "nonpayable",
      "type": "function"
    },
    {
      "inputs": [],
      "name": "paused",
      "outputs": [
        {
          "internalType": "bool",
          "name": "",
          "type": "bool"
        }
      ],
      "stateMutability": "view",
      "type": "function"
    },
    {
      "inputs": [],
      "name": "renounceOwnership",
      "outputs": [],
      "stateMutability": "nonpayable",
      "type": "function"
    },
    {
      "inputs": [
        {
          "internalType": "address",
          "name": "from",
          "type": "address"
        },
        {
          "internalType": "address",
          "name": "to",
          "type": "address"
        },
        {
          "internalType": "uint256",
          "name": "tokenId",
          "type": "uint256"
        }
      ],
      "name": "safeTransferFrom",
      "outputs": [],
      "stateMutability": "nonpayable",
      "type": "function"
    },
    {
      "inputs": [
        {
          "internalType": "address",
          "name": "from",
          "type": "address"
        },
        {
          "internalType": "address",
          "name": "to",
          "type": "address"
        },
        {
          "internalType": "uint256",
          "name": "tokenId",
          "type": "uint256"
        },
        {
          "internalType": "bytes",
          "name": "data",
          "type": "bytes"
        }
      ],
      "name": "safeTransferFrom",
      "outputs": [],
      "stateMutability": "nonpayable",
      "type": "function"
    },
    {
      "inputs": [
        {
          "internalType": "address",
          "name": "operator",
          "type": "address"
        },
        {
          "internalType": "bool",
          "name": "approved",
          "type": "bool"
        }
      ],
      "name": "setApprovalForAll",
      "outputs": [],
      "stateMutability": "nonpayable",
      "type": "function"
    },
    {
      "inputs": [
        {
          "internalType": "bytes4",
          "name": "interfaceId",
          "type": "bytes4"
        }
      ],
      "name": "supportsInterface",
      "outputs": [
        {
          "internalType": "bool",
          "name": "",
          "type": "bool"
        }
      ],
      "stateMutability": "view",
      "type": "function"
    },
    {
      "inputs": [],
      "name": "symbol",
      "outputs": [
        {
          "internalType": "string",
          "name": "",
          "type": "string"
        }
      ],
      "stateMutability": "view",
      "type": "function"
    },
    {
      "inputs": [
        {
          "internalType": "uint256",
          "name": "index",
          "type": "uint256"
        }
      ],
      "name": "tokenByIndex",
      "outputs": [
        {
          "internalType": "uint256",
          "name": "",
          "type": "uint256"
        }
      ],
      "stateMutability": "view",
      "type": "function"
    },
    {
      "inputs": [
        {
          "internalType": "address",
          "name": "owner",
          "type": "address"
        },
        {
          "internalType": "uint256",
          "name": "index",
          "type": "uint256"
        }
      ],
      "name": "tokenOfOwnerByIndex",
      "outputs": [
        {
          "internalType": "uint256",
          "name": "",
          "type": "uint256"
        }
      ],
      "stateMutability": "view",
      "type": "function"
    },
    {
      "inputs": [
        {
          "internalType": "uint256",
          "name": "tokenId",
          "type": "uint256"
        }
      ],
      "name": "tokenURI",
      "outputs": [
        {
          "internalType": "string",
          "name": "",
          "type": "string"
        }
      ],
      "stateMutability": "view",
      "type": "function"
    },
    {
      "inputs": [],
      "name": "totalSupply",
      "outputs": [
        {
          "internalType": "uint256",
          "name": "",
          "type": "uint256"
        }
      ],
      "stateMutability": "view",
      "type": "function"
    },
    {
      "inputs": [
        {
          "internalType": "address",
          "name": "from",
          "type": "address"
        },
        {
          "internalType": "address",
          "name": "to",
          "type": "address"
        },
        {
          "internalType": "uint256",
          "name": "tokenId",
          "type": "uint256"
        }
      ],
      "name": "transferFrom",
      "outputs": [],
      "stateMutability": "nonpayable",
      "type": "function"
    },
    {
      "inputs": [
        {
          "internalType": "address",
          "name": "newOwner",
          "type": "address"
        }
      ],
      "name": "transferOwnership",
      "outputs": [],
      "stateMutability": "nonpayable",
      "type": "function"
    },
    {
      "inputs": [],
      "name": "treasurywallet",
      "outputs": [
        {
          "internalType": "address",
          "name": "",
          "type": "address"
        }
      ],
      "stateMutability": "view",
      "type": "function"
    },
    {
      "inputs": [],
      "name": "unpause",
      "outputs": [],
      "stateMutability": "nonpayable",
      "type": "function"
    },
    {
      "inputs": [
        {
          "internalType": "uint256",
          "name": "tokenId",
          "type": "uint256"
        },
        {
          "internalType": "string",
          "name": "metadataUri",
          "type": "string"
        }
      ],
      "name": "updateMetadataURI",
      "outputs": [
        {
          "internalType": "bool",
          "name": "",
          "type": "bool"
        }
      ],
      "stateMutability": "nonpayable",
      "type": "function"
    }
  ],
  "bytecode": "0x60806040523480156200001157600080fd5b5060405162005a4838038062005a48833981810160405281019062000037919062000308565b6040518060400160405280600981526020017f4e753130205465737400000000000000000000000000000000000000000000008152506040518060400160405280600581526020017f4d524b4c540000000000000000000000000000000000000000000000000000008152508160009081620000b49190620005c9565b508060019081620000c69190620005c9565b5050506000600b60006101000a81548160ff02191690831515021790555062000104620000f8620001d060201b60201c565b620001d860201b60201c565b600073ffffffffffffffffffffffffffffffffffffffff168273ffffffffffffffffffffffffffffffffffffffff160362000176576040517f08c379a00000000000000000000000000000000000000000000000000000000081526004016200016d9062000737565b60405180910390fd5b81600e60006101000a81548173ffffffffffffffffffffffffffffffffffffffff021916908373ffffffffffffffffffffffffffffffffffffffff160217905550620001c881620001d860201b60201c565b505062000759565b600033905090565b6000600b60019054906101000a900473ffffffffffffffffffffffffffffffffffffffff16905081600b60016101000a81548173ffffffffffffffffffffffffffffffffffffffff021916908373ffffffffffffffffffffffffffffffffffffffff1602179055508173ffffffffffffffffffffffffffffffffffffffff168173ffffffffffffffffffffffffffffffffffffffff167f8be0079c531659141344cd1fd0a4f28419497f9722a3daafe3b4186f6b6457e060405160405180910390a35050565b600080fd5b600073ffffffffffffffffffffffffffffffffffffffff82169050919050565b6000620002d082620002a3565b9050919050565b620002e281620002c3565b8114620002ee57600080fd5b50565b6000815190506200030281620002d7565b92915050565b600080604083850312156200032257620003216200029e565b5b60006200033285828601620002f1565b92505060206200034585828601620002f1565b9150509250929050565b600081519050919050565b7f4e487b7100000000000000000000000000000000000000000000000000000000600052604160045260246000fd5b7f4e487b7100000000000000000000000000000000000000000000000000000000600052602260045260246000fd5b60006002820490506001821680620003d157607f821691505b602082108103620003e757620003e662000389565b5b50919050565b60008190508160005260206000209050919050565b60006020601f8301049050919050565b600082821b905092915050565b600060088302620004517fffffffffffffffffffffffffffffffffffffffffffffffffffffffffffffffff8262000412565b6200045d868362000412565b95508019841693508086168417925050509392505050565b6000819050919050565b6000819050919050565b6000620004aa620004a46200049e8462000475565b6200047f565b62000475565b9050919050565b6000819050919050565b620004c68362000489565b620004de620004d582620004b1565b8484546200041f565b825550505050565b600090565b620004f5620004e6565b62000502818484620004bb565b505050565b5b818110156200052a576200051e600082620004eb565b60018101905062000508565b5050565b601f82111562000579576200054381620003ed565b6200054e8462000402565b810160208510156200055e578190505b620005766200056d8562000402565b83018262000507565b50505b505050565b600082821c905092915050565b60006200059e600019846008026200057e565b1980831691505092915050565b6000620005b983836200058b565b9150826002028217905092915050565b620005d4826200034f565b67ffffffffffffffff811115620005f057620005ef6200035a565b5b620005fc8254620003b8565b620006098282856200052e565b600060209050601f8311600181146200064157600084156200062c578287015190505b620006388582620005ab565b865550620006a8565b601f1984166200065186620003ed565b60005b828110156200067b5784890151825560018201915060208501945060208101905062000654565b868310156200069b578489015162000697601f8916826200058b565b8355505b6001600288020188555050505b505050505050565b600082825260208201905092915050565b7f54726561737572792077616c6c65742063616e206e6f7420626520656d70747960008201527f2100000000000000000000000000000000000000000000000000000000000000602082015250565b60006200071f602183620006b0565b91506200072c82620006c1565b604082019050919050565b60006020820190508181036000830152620007528162000710565b9050919050565b6152df80620007696000396000f3fe608060405234801561001057600080fd5b50600436106102115760003560e01c80635c975abb1161012557806395d89b41116100ad578063c87b56dd1161007c578063c87b56dd14610650578063d565a1cd14610680578063e9643811146106b2578063e985e9c5146106d0578063f2fde38b1461070057610211565b806395d89b41146105dc57806399fb0d86146105fa578063a22cb46514610618578063b88d4fde1461063457610211565b80638456cb59116100f45780638456cb59146105345780638c2109751461053e5780638da5cb5b146105705780638fe86b3f1461058e57806393946da5146105be57610211565b80635c975abb146104ac5780636352211e146104ca57806370a08231146104fa578063715018a61461052a57610211565b80632f745c59116101a85780633f4ba83a116101775780633f4ba83a1461040a57806342842e0e1461041457806342966c68146104305780634f6ccce71461044c578063537c1ac71461047c57610211565b80632f745c591461034a5780633cb7c34f1461037a5780633d687215146103aa5780633d79ca1a146103da57610211565b806318160ddd116101e457806318160ddd146102b05780631c15cc00146102ce57806323b872dd146102fe5780632af4c31e1461031a57610211565b806301ffc9a71461021657806306fdde0314610246578063081812fc14610264578063095ea7b314610294575b600080fd5b610230600480360381019061022b919061376a565b61071c565b60405161023d91906137b2565b60405180910390f35b61024e61072e565b60405161025b919061385d565b60405180910390f35b61027e600480360381019061027991906138b5565b6107c0565b60405161028b9190613923565b60405180910390f35b6102ae60048036038101906102a9919061396a565b610806565b005b6102b861091d565b6040516102c591906139b9565b60405180910390f35b6102e860048036038101906102e39190613b09565b61092a565b6040516102f5919061385d565b60405180910390f35b61031860048036038101906103139190613b52565b610a0d565b005b610334600480360381019061032f9190613ba5565b610a6d565b6040516103419190613923565b60405180910390f35b610364600480360381019061035f919061396a565b610b2e565b60405161037191906139b9565b60405180910390f35b610394600480360381019061038f9190613bd2565b610bd3565b6040516103a1919061385d565b60405180910390f35b6103c460048036038101906103bf9190613b09565b610e02565b6040516103d1919061385d565b60405180910390f35b6103f460048036038101906103ef9190613d41565b610ee5565b60405161040191906137b2565b60405180910390f35b6104126112a3565b005b61042e60048036038101906104299190613b52565b6112b5565b005b61044a600480360381019061044591906138b5565b6112d5565b005b610466600480360381019061046191906138b5565b611331565b60405161047391906139b9565b60405180910390f35b61049660048036038101906104919190613ba5565b6113a2565b6040516104a39190613923565b60405180910390f35b6104b461149b565b6040516104c191906137b2565b60405180910390f35b6104e460048036038101906104df91906138b5565b6114b2565b6040516104f19190613923565b60405180910390f35b610514600480360381019061050f9190613ba5565b611538565b60405161052191906139b9565b60405180910390f35b6105326115ef565b005b61053c611603565b005b610558600480360381019061055391906138b5565b611615565b60405161056793929190613d9d565b60405180910390f35b6105786116d4565b6040516105859190613923565b60405180910390f35b6105a860048036038101906105a39190613ddb565b6116fe565b6040516105b591906137b2565b60405180910390f35b6105c6611764565b6040516105d39190613923565b60405180910390f35b6105e461178a565b6040516105f1919061385d565b60405180910390f35b61060261181c565b60405161060f919061385d565b60405180910390f35b610632600480360381019061062d9190613e63565b6118b6565b005b61064e60048036038101906106499190613f44565b6118cc565b005b61066a600480360381019061066591906138b5565b61192e565b604051610677919061385d565b60405180910390f35b61069a60048036038101906106959190613fc7565b611aac565b6040516106a993929190614007565b60405180910390f35b6106ba611be1565b6040516106c7919061385d565b60405180910390f35b6106ea60048036038101906106e59190614045565b611c7b565b6040516106f791906137b2565b60405180910390f35b61071a60048036038101906107159190613ba5565b611d0f565b005b600061072782611d92565b9050919050565b60606000805461073d906140b4565b80601f0160208091040260200160405190810160405280929190818152602001828054610769906140b4565b80156107b65780601f1061078b576101008083540402835291602001916107b6565b820191906000526020600020905b81548152906001019060200180831161079957829003601f168201915b5050505050905090565b60006107cb82611df3565b6004600083815260200190815260200160002060009054906101000a900473ffffffffffffffffffffffffffffffffffffffff169050919050565b6000610811826114b2565b90508073ffffffffffffffffffffffffffffffffffffffff168373ffffffffffffffffffffffffffffffffffffffff1603610881576040517f08c379a000000000000000000000000000000000000000000000000000000000815260040161087890614157565b60405180910390fd5b8073ffffffffffffffffffffffffffffffffffffffff166108a0611e3e565b73ffffffffffffffffffffffffffffffffffffffff1614806108cf57506108ce816108c9611e3e565b611c7b565b5b61090e576040517f08c379a0000000000000000000000000000000000000000000000000000000008152600401610905906141e9565b60405180910390fd5b6109188383611e46565b505050565b6000600880549050905090565b6060610934611eff565b81600d908161094391906143b5565b507f578508a4da04d2deca7e1f0f9d367e50ab4298e8b2dfb24beec9708540199f1482604051610973919061385d565b60405180910390a1600d8054610988906140b4565b80601f01602080910402602001604051908101604052809291908181526020018280546109b4906140b4565b8015610a015780601f106109d657610100808354040283529160200191610a01565b820191906000526020600020905b8154815290600101906020018083116109e457829003601f168201915b50505050509050919050565b610a1e610a18611e3e565b82611f7d565b610a5d576040517f08c379a0000000000000000000000000000000000000000000000000000000008152600401610a54906144f9565b60405180910390fd5b610a68838383612012565b505050565b6000610a77611eff565b600073ffffffffffffffffffffffffffffffffffffffff168273ffffffffffffffffffffffffffffffffffffffff1603610ae6576040517f08c379a0000000000000000000000000000000000000000000000000000000008152600401610add9061458b565b60405180910390fd5b610aef8261230b565b7fcfaaa26691e16e66e73290fc725eee1a6b4e0e693a1640484937aac25ffb55a482604051610b1e9190613923565b60405180910390a1819050919050565b6000610b3983611538565b8210610b7a576040517f08c379a0000000000000000000000000000000000000000000000000000000008152600401610b719061461d565b60405180910390fd5b600660008473ffffffffffffffffffffffffffffffffffffffff1673ffffffffffffffffffffffffffffffffffffffff168152602001908152602001600020600083815260200190815260200160002054905092915050565b60606000849050600084905060008490506000815183518551610bf6919061466c565b610c00919061466c565b67ffffffffffffffff811115610c1957610c186139de565b5b6040519080825280601f01601f191660200182016040528015610c4b5781602001600182028036833780820191505090505b5090506000805b8551811015610cda57858181518110610c6e57610c6d6146a0565b5b602001015160f81c60f81b838380610c85906146cf565b945081518110610c9857610c976146a0565b5b60200101907effffffffffffffffffffffffffffffffffffffffffffffffffffffffffffff1916908160001a9053508080610cd2906146cf565b915050610c52565b5060005b8451811015610d6657848181518110610cfa57610cf96146a0565b5b602001015160f81c60f81b838380610d11906146cf565b945081518110610d2457610d236146a0565b5b60200101907effffffffffffffffffffffffffffffffffffffffffffffffffffffffffffff1916908160001a9053508080610d5e906146cf565b915050610cde565b5060005b8351811015610df257838181518110610d8657610d856146a0565b5b602001015160f81c60f81b838380610d9d906146cf565b945081518110610db057610daf6146a0565b5b60200101907effffffffffffffffffffffffffffffffffffffffffffffffffffffffffffff1916908160001a9053508080610dea906146cf565b915050610d6a565b5081955050505050509392505050565b6060610e0c611eff565b81600c9081610e1b91906143b5565b507f606c793fd43f735e30c5a8667f2195d9bc98070eef49f530fa6ed6b231e3ec6282604051610e4b919061385d565b60405180910390a1600c8054610e60906140b4565b80601f0160208091040260200160405190810160405280929190818152602001828054610e8c906140b4565b8015610ed95780601f10610eae57610100808354040283529160200191610ed9565b820191906000526020600020905b815481529060010190602001808311610ebc57829003601f168201915b50505050509050919050565b6000610eef611eff565b82825114610f32576040517f08c379a0000000000000000000000000000000000000000000000000000000008152600401610f29906147af565b60405180910390fd5b6000825167ffffffffffffffff811115610f4f57610f4e6139de565b5b604051908082528060200260200182016040528015610f7d5781602001602082028036833780820191505090505b5090506000835167ffffffffffffffff811115610f9d57610f9c6139de565b5b604051908082528060200260200182016040528015610fcb5781602001602082028036833780820191505090505b50905060008060005b878110156111e757610fff878281518110610ff257610ff16146a0565b5b60200260200101516123d1565b1561105157868181518110611017576110166146a0565b5b6020026020010151858481518110611032576110316146a0565b5b6020026020010181815250508280611049906146cf565b9350506111d4565b868181518110611064576110636146a0565b5b602002602001015184838151811061107f5761107e6146a0565b5b6020026020010181815250508180611096906146cf565b9250506110df600e60009054906101000a900473ffffffffffffffffffffffffffffffffffffffff168883815181106110d2576110d16146a0565b5b6020026020010151612412565b60006111048883815181106110f7576110f66146a0565b5b602002602001015161192e565b905061112a88838151811061111c5761111b6146a0565b5b602002602001015182612430565b6040518060600160405280898481518110611148576111476146a0565b5b6020026020010151815260200182815260200160001515815250600f60008a8581518110611179576111786146a0565b5b602002602001015181526020019081526020016000206000820151816000015560208201518160010190816111ae91906143b5565b5060408201518160020160006101000a81548160ff021916908315150217905550905050505b80806111df906146cf565b915050610fd4565b50600e60009054906101000a900473ffffffffffffffffffffffffffffffffffffffff1673ffffffffffffffffffffffffffffffffffffffff167f0fccc44f8f4572066001d167eac735aa3f72308ef306fd3af1b0bb0b6a7ba90f84604051611250919061488d565b60405180910390a27f4cd14f2798413b3c9257174c53ca4fe07d7e956189f69894ec2664621b271edf84604051611287919061488d565b60405180910390a1818452808352600194505050505092915050565b6112ab611eff565b6112b36124d4565b565b6112d0838383604051806020016040528060008152506118cc565b505050565b6112e66112e0611e3e565b82611f7d565b611325576040517f08c379a000000000000000000000000000000000000000000000000000000000815260040161131c906144f9565b60405180910390fd5b61132e81612537565b50565b600061133b61091d565b821061137c576040517f08c379a000000000000000000000000000000000000000000000000000000000815260040161137390614921565b60405180910390fd5b600882815481106113905761138f6146a0565b5b90600052602060002001549050919050565b60006113ac611eff565b600073ffffffffffffffffffffffffffffffffffffffff168273ffffffffffffffffffffffffffffffffffffffff160361141b576040517f08c379a0000000000000000000000000000000000000000000000000000000008152600401611412906149b3565b60405180910390fd5b81600e60006101000a81548173ffffffffffffffffffffffffffffffffffffffff021916908373ffffffffffffffffffffffffffffffffffffffff1602179055507f06fa0b11d19b1fc1ebfeef70f0eb1fdfb7cef13063ee8428b7039e243e4138ed8260405161148b9190613923565b60405180910390a1819050919050565b6000600b60009054906101000a900460ff16905090565b6000806114be83612572565b9050600073ffffffffffffffffffffffffffffffffffffffff168173ffffffffffffffffffffffffffffffffffffffff160361152f576040517f08c379a000000000000000000000000000000000000000000000000000000000815260040161152690614a1f565b60405180910390fd5b80915050919050565b60008073ffffffffffffffffffffffffffffffffffffffff168273ffffffffffffffffffffffffffffffffffffffff16036115a8576040517f08c379a000000000000000000000000000000000000000000000000000000000815260040161159f90614ab1565b60405180910390fd5b600360008373ffffffffffffffffffffffffffffffffffffffff1673ffffffffffffffffffffffffffffffffffffffff168152602001908152602001600020549050919050565b6115f7611eff565b611601600061230b565b565b61160b611eff565b6116136125af565b565b600f60205280600052604060002060009150905080600001549080600101805461163e906140b4565b80601f016020809104026020016040519081016040528092919081815260200182805461166a906140b4565b80156116b75780601f1061168c576101008083540402835291602001916116b7565b820191906000526020600020905b81548152906001019060200180831161169a57829003601f168201915b5050505050908060020160009054906101000a900460ff16905083565b6000600b60019054906101000a900473ffffffffffffffffffffffffffffffffffffffff16905090565b6000611708611eff565b611711836123d1565b611750576040517f08c379a000000000000000000000000000000000000000000000000000000000815260040161174790614b1d565b60405180910390fd5b61175a8383612430565b6001905092915050565b600e60009054906101000a900473ffffffffffffffffffffffffffffffffffffffff1681565b606060018054611799906140b4565b80601f01602080910402602001604051908101604052809291908181526020018280546117c5906140b4565b80156118125780601f106117e757610100808354040283529160200191611812565b820191906000526020600020905b8154815290600101906020018083116117f557829003601f168201915b5050505050905090565b6060611826611eff565b600c8054611833906140b4565b80601f016020809104026020016040519081016040528092919081815260200182805461185f906140b4565b80156118ac5780601f10611881576101008083540402835291602001916118ac565b820191906000526020600020905b81548152906001019060200180831161188f57829003601f168201915b5050505050905090565b6118c86118c1611e3e565b8383612612565b5050565b6118dd6118d7611e3e565b83611f7d565b61191c576040517f08c379a0000000000000000000000000000000000000000000000000000000008152600401611913906144f9565b60405180910390fd5b6119288484848461277e565b50505050565b6060611939826123d1565b611978576040517f08c379a000000000000000000000000000000000000000000000000000000000815260040161196f90614b1d565b60405180910390fd5b6000611aa1600c805461198a906140b4565b80601f01602080910402602001604051908101604052809291908181526020018280546119b6906140b4565b8015611a035780601f106119d857610100808354040283529160200191611a03565b820191906000526020600020905b8154815290600101906020018083116119e657829003601f168201915b5050505050611a11856127da565b600d8054611a1e906140b4565b80601f0160208091040260200160405190810160405280929190818152602001828054611a4a906140b4565b8015611a975780601f10611a6c57610100808354040283529160200191611a97565b820191906000526020600020905b815481529060010190602001808311611a7a57829003601f168201915b5050505050610bd3565b905080915050919050565b6000806060611ab9611eff565b611ac2856123d1565b15611b02576040517f08c379a0000000000000000000000000000000000000000000000000000000008152600401611af990614b89565b60405180910390fd5b7f1f89f147a58d1673945cf416187db98efc8208408c011b91887acd59fd8523c38486604051611b33929190614ba9565b60405180910390a1611b458486612412565b6000611b508661192e565b9050611b5c8682612430565b604051806060016040528087815260200182815260200160001515815250600f6000888152602001908152602001600020600082015181600001556020820151816001019081611bac91906143b5565b5060408201518160020160006101000a81548160ff021916908315150217905550905050858582935093509350509250925092565b6060611beb611eff565b600d8054611bf8906140b4565b80601f0160208091040260200160405190810160405280929190818152602001828054611c24906140b4565b8015611c715780601f10611c4657610100808354040283529160200191611c71565b820191906000526020600020905b815481529060010190602001808311611c5457829003601f168201915b5050505050905090565b6000600560008473ffffffffffffffffffffffffffffffffffffffff1673ffffffffffffffffffffffffffffffffffffffff16815260200190815260200160002060008373ffffffffffffffffffffffffffffffffffffffff1673ffffffffffffffffffffffffffffffffffffffff16815260200190815260200160002060009054906101000a900460ff16905092915050565b611d17611eff565b600073ffffffffffffffffffffffffffffffffffffffff168173ffffffffffffffffffffffffffffffffffffffff1603611d86576040517f08c379a0000000000000000000000000000000000000000000000000000000008152600401611d7d9061458b565b60405180910390fd5b611d8f8161230b565b50565b6000634906490660e01b7bffffffffffffffffffffffffffffffffffffffffffffffffffffffff1916827bffffffffffffffffffffffffffffffffffffffffffffffffffffffff19161480611dec5750611deb826128a8565b5b9050919050565b611dfc816123d1565b611e3b576040517f08c379a0000000000000000000000000000000000000000000000000000000008152600401611e3290614a1f565b60405180910390fd5b50565b600033905090565b816004600083815260200190815260200160002060006101000a81548173ffffffffffffffffffffffffffffffffffffffff021916908373ffffffffffffffffffffffffffffffffffffffff160217905550808273ffffffffffffffffffffffffffffffffffffffff16611eb9836114b2565b73ffffffffffffffffffffffffffffffffffffffff167f8c5be1e5ebec7d5bd14f71427d1e84f3dd0314c0f7b2291e5b200ac8c7c3b92560405160405180910390a45050565b611f07611e3e565b73ffffffffffffffffffffffffffffffffffffffff16611f256116d4565b73ffffffffffffffffffffffffffffffffffffffff1614611f7b576040517f08c379a0000000000000000000000000000000000000000000000000000000008152600401611f7290614c1e565b60405180910390fd5b565b600080611f89836114b2565b90508073ffffffffffffffffffffffffffffffffffffffff168473ffffffffffffffffffffffffffffffffffffffff161480611fcb5750611fca8185611c7b565b5b8061200957508373ffffffffffffffffffffffffffffffffffffffff16611ff1846107c0565b73ffffffffffffffffffffffffffffffffffffffff16145b91505092915050565b8273ffffffffffffffffffffffffffffffffffffffff16612032826114b2565b73ffffffffffffffffffffffffffffffffffffffff1614612088576040517f08c379a000000000000000000000000000000000000000000000000000000000815260040161207f90614cb0565b60405180910390fd5b600073ffffffffffffffffffffffffffffffffffffffff168273ffffffffffffffffffffffffffffffffffffffff16036120f7576040517f08c379a00000000000000000000000000000000000000000000000000000000081526004016120ee90614d42565b60405180910390fd5b6121048383836001612922565b8273ffffffffffffffffffffffffffffffffffffffff16612124826114b2565b73ffffffffffffffffffffffffffffffffffffffff161461217a576040517f08c379a000000000000000000000000000000000000000000000000000000000815260040161217190614cb0565b60405180910390fd5b6004600082815260200190815260200160002060006101000a81549073ffffffffffffffffffffffffffffffffffffffff02191690556001600360008573ffffffffffffffffffffffffffffffffffffffff1673ffffffffffffffffffffffffffffffffffffffff168152602001908152602001600020600082825403925050819055506001600360008473ffffffffffffffffffffffffffffffffffffffff1673ffffffffffffffffffffffffffffffffffffffff16815260200190815260200160002060008282540192505081905550816002600083815260200190815260200160002060006101000a81548173ffffffffffffffffffffffffffffffffffffffff021916908373ffffffffffffffffffffffffffffffffffffffff160217905550808273ffffffffffffffffffffffffffffffffffffffff168473ffffffffffffffffffffffffffffffffffffffff167fddf252ad1be2c89b69c2b068fc378daa952ba7f163c4a11628f55a4df523b3ef60405160405180910390a4612306838383600161293c565b505050565b6000600b60019054906101000a900473ffffffffffffffffffffffffffffffffffffffff16905081600b60016101000a81548173ffffffffffffffffffffffffffffffffffffffff021916908373ffffffffffffffffffffffffffffffffffffffff1602179055508173ffffffffffffffffffffffffffffffffffffffff168173ffffffffffffffffffffffffffffffffffffffff167f8be0079c531659141344cd1fd0a4f28419497f9722a3daafe3b4186f6b6457e060405160405180910390a35050565b60008073ffffffffffffffffffffffffffffffffffffffff166123f383612572565b73ffffffffffffffffffffffffffffffffffffffff1614159050919050565b61242c828260405180602001604052806000815250612942565b5050565b612439826123d1565b612478576040517f08c379a000000000000000000000000000000000000000000000000000000000815260040161246f90614dd4565b60405180910390fd5b80600a6000848152602001908152602001600020908161249891906143b5565b507ff8e1a15aba9398e019f0b49df1a4fde98ee17ae345cb5f6b5e2c27f5033e8ce7826040516124c891906139b9565b60405180910390a15050565b6124dc61299d565b6000600b60006101000a81548160ff0219169083151502179055507f5db9ee0a495bf2e6ff9c91a7834c1ba4fdd244a5e8aa4e537bd38aeae4b073aa612520611e3e565b60405161252d9190613923565b60405180910390a1565b612540816129e6565b6001600f600083815260200190815260200160002060020160006101000a81548160ff02191690831515021790555050565b60006002600083815260200190815260200160002060009054906101000a900473ffffffffffffffffffffffffffffffffffffffff169050919050565b6125b7612a39565b6001600b60006101000a81548160ff0219169083151502179055507f62e78cea01bee320cd4e420270b5ea74000d11b0c9f74754ebdbfc544b05a2586125fb611e3e565b6040516126089190613923565b60405180910390a1565b8173ffffffffffffffffffffffffffffffffffffffff168373ffffffffffffffffffffffffffffffffffffffff1603612680576040517f08c379a000000000000000000000000000000000000000000000000000000000815260040161267790614e40565b60405180910390fd5b80600560008573ffffffffffffffffffffffffffffffffffffffff1673ffffffffffffffffffffffffffffffffffffffff16815260200190815260200160002060008473ffffffffffffffffffffffffffffffffffffffff1673ffffffffffffffffffffffffffffffffffffffff16815260200190815260200160002060006101000a81548160ff0219169083151502179055508173ffffffffffffffffffffffffffffffffffffffff168373ffffffffffffffffffffffffffffffffffffffff167f17307eab39ab6107e8899845ad3d59bd9653f200f220920489ca2b5937696c318360405161277191906137b2565b60405180910390a3505050565b612789848484612012565b61279584848484612a83565b6127d4576040517f08c379a00000000000000000000000000000000000000000000000000000000081526004016127cb90614ed2565b60405180910390fd5b50505050565b6060600060016127e984612c0a565b01905060008167ffffffffffffffff811115612808576128076139de565b5b6040519080825280601f01601f19166020018201604052801561283a5781602001600182028036833780820191505090505b509050600082602001820190505b60011561289d578080600190039150507f3031323334353637383961626364656600000000000000000000000000000000600a86061a8153600a858161289157612890614ef2565b5b04945060008503612848575b819350505050919050565b60007f780e9d63000000000000000000000000000000000000000000000000000000007bffffffffffffffffffffffffffffffffffffffffffffffffffffffff1916827bffffffffffffffffffffffffffffffffffffffffffffffffffffffff1916148061291b575061291a82612d5d565b5b9050919050565b61292a612a39565b61293684848484612e3f565b50505050565b50505050565b61294c8383612f9d565b6129596000848484612a83565b612998576040517f08c379a000000000000000000000000000000000000000000000000000000000815260040161298f90614ed2565b60405180910390fd5b505050565b6129a561149b565b6129e4576040517f08c379a00000000000000000000000000000000000000000000000000000000081526004016129db90614f6d565b60405180910390fd5b565b6129ef816131ba565b6000600a60008381526020019081526020016000208054612a0f906140b4565b905014612a3657600a60008281526020019081526020016000206000612a3591906136a1565b5b50565b612a4161149b565b15612a81576040517f08c379a0000000000000000000000000000000000000000000000000000000008152600401612a7890614fd9565b60405180910390fd5b565b6000612aa48473ffffffffffffffffffffffffffffffffffffffff16613308565b15612bfd578373ffffffffffffffffffffffffffffffffffffffff1663150b7a02612acd611e3e565b8786866040518563ffffffff1660e01b8152600401612aef949392919061504e565b6020604051808303816000875af1925050508015612b2b57506040513d601f19601f82011682018060405250810190612b2891906150af565b60015b612bad573d8060008114612b5b576040519150601f19603f3d011682016040523d82523d6000602084013e612b60565b606091505b506000815103612ba5576040517f08c379a0000000000000000000000000000000000000000000000000000000008152600401612b9c90614ed2565b60405180910390fd5b805181602001fd5b63150b7a0260e01b7bffffffffffffffffffffffffffffffffffffffffffffffffffffffff1916817bffffffffffffffffffffffffffffffffffffffffffffffffffffffff191614915050612c02565b600190505b949350505050565b600080600090507a184f03e93ff9f4daa797ed6e38ed64bf6a1f0100000000000000008310612c68577a184f03e93ff9f4daa797ed6e38ed64bf6a1f0100000000000000008381612c5e57612c5d614ef2565b5b0492506040810190505b6d04ee2d6d415b85acef81000000008310612ca5576d04ee2d6d415b85acef81000000008381612c9b57612c9a614ef2565b5b0492506020810190505b662386f26fc100008310612cd457662386f26fc100008381612cca57612cc9614ef2565b5b0492506010810190505b6305f5e1008310612cfd576305f5e1008381612cf357612cf2614ef2565b5b0492506008810190505b6127108310612d22576127108381612d1857612d17614ef2565b5b0492506004810190505b60648310612d455760648381612d3b57612d3a614ef2565b5b0492506002810190505b600a8310612d54576001810190505b80915050919050565b60007f80ac58cd000000000000000000000000000000000000000000000000000000007bffffffffffffffffffffffffffffffffffffffffffffffffffffffff1916827bffffffffffffffffffffffffffffffffffffffffffffffffffffffff19161480612e2857507f5b5e139f000000000000000000000000000000000000000000000000000000007bffffffffffffffffffffffffffffffffffffffffffffffffffffffff1916827bffffffffffffffffffffffffffffffffffffffffffffffffffffffff1916145b80612e385750612e378261332b565b5b9050919050565b612e4b84848484613395565b6001811115612e8f576040517f08c379a0000000000000000000000000000000000000000000000000000000008152600401612e869061514e565b60405180910390fd5b6000829050600073ffffffffffffffffffffffffffffffffffffffff168573ffffffffffffffffffffffffffffffffffffffff1603612ed657612ed18161339b565b612f15565b8373ffffffffffffffffffffffffffffffffffffffff168573ffffffffffffffffffffffffffffffffffffffff1614612f1457612f1385826133e4565b5b5b600073ffffffffffffffffffffffffffffffffffffffff168473ffffffffffffffffffffffffffffffffffffffff1603612f5757612f5281613551565b612f96565b8473ffffffffffffffffffffffffffffffffffffffff168473ffffffffffffffffffffffffffffffffffffffff1614612f9557612f948482613622565b5b5b5050505050565b600073ffffffffffffffffffffffffffffffffffffffff168273ffffffffffffffffffffffffffffffffffffffff160361300c576040517f08c379a0000000000000000000000000000000000000000000000000000000008152600401613003906151ba565b60405180910390fd5b613015816123d1565b15613055576040517f08c379a000000000000000000000000000000000000000000000000000000000815260040161304c90615226565b60405180910390fd5b613063600083836001612922565b61306c816123d1565b156130ac576040517f08c379a00000000000000000000000000000000000000000000000000000000081526004016130a390615226565b60405180910390fd5b6001600360008473ffffffffffffffffffffffffffffffffffffffff1673ffffffffffffffffffffffffffffffffffffffff16815260200190815260200160002060008282540192505081905550816002600083815260200190815260200160002060006101000a81548173ffffffffffffffffffffffffffffffffffffffff021916908373ffffffffffffffffffffffffffffffffffffffff160217905550808273ffffffffffffffffffffffffffffffffffffffff16600073ffffffffffffffffffffffffffffffffffffffff167fddf252ad1be2c89b69c2b068fc378daa952ba7f163c4a11628f55a4df523b3ef60405160405180910390a46131b660008383600161293c565b5050565b60006131c5826114b2565b90506131d5816000846001612922565b6131de826114b2565b90506004600083815260200190815260200160002060006101000a81549073ffffffffffffffffffffffffffffffffffffffff02191690556001600360008373ffffffffffffffffffffffffffffffffffffffff1673ffffffffffffffffffffffffffffffffffffffff168152602001908152602001600020600082825403925050819055506002600083815260200190815260200160002060006101000a81549073ffffffffffffffffffffffffffffffffffffffff021916905581600073ffffffffffffffffffffffffffffffffffffffff168273ffffffffffffffffffffffffffffffffffffffff167fddf252ad1be2c89b69c2b068fc378daa952ba7f163c4a11628f55a4df523b3ef60405160405180910390a461330481600084600161293c565b5050565b6000808273ffffffffffffffffffffffffffffffffffffffff163b119050919050565b60007f01ffc9a7000000000000000000000000000000000000000000000000000000007bffffffffffffffffffffffffffffffffffffffffffffffffffffffff1916827bffffffffffffffffffffffffffffffffffffffffffffffffffffffff1916149050919050565b50505050565b6008805490506009600083815260200190815260200160002081905550600881908060018154018082558091505060019003906000526020600020016000909190919091505550565b600060016133f184611538565b6133fb9190615246565b90506000600760008481526020019081526020016000205490508181146134e0576000600660008673ffffffffffffffffffffffffffffffffffffffff1673ffffffffffffffffffffffffffffffffffffffff168152602001908152602001600020600084815260200190815260200160002054905080600660008773ffffffffffffffffffffffffffffffffffffffff1673ffffffffffffffffffffffffffffffffffffffff168152602001908152602001600020600084815260200190815260200160002081905550816007600083815260200190815260200160002081905550505b6007600084815260200190815260200160002060009055600660008573ffffffffffffffffffffffffffffffffffffffff1673ffffffffffffffffffffffffffffffffffffffff16815260200190815260200160002060008381526020019081526020016000206000905550505050565b600060016008805490506135659190615246565b9050600060096000848152602001908152602001600020549050600060088381548110613595576135946146a0565b5b9060005260206000200154905080600883815481106135b7576135b66146a0565b5b9060005260206000200181905550816009600083815260200190815260200160002081905550600960008581526020019081526020016000206000905560088054806136065761360561527a565b5b6001900381819060005260206000200160009055905550505050565b600061362d83611538565b905081600660008573ffffffffffffffffffffffffffffffffffffffff1673ffffffffffffffffffffffffffffffffffffffff168152602001908152602001600020600083815260200190815260200160002081905550806007600084815260200190815260200160002081905550505050565b5080546136ad906140b4565b6000825580601f106136bf57506136de565b601f0160209004906000526020600020908101906136dd91906136e1565b5b50565b5b808211156136fa5760008160009055506001016136e2565b5090565b6000604051905090565b600080fd5b600080fd5b60007fffffffff0000000000000000000000000000000000000000000000000000000082169050919050565b61374781613712565b811461375257600080fd5b50565b6000813590506137648161373e565b92915050565b6000602082840312156137805761377f613708565b5b600061378e84828501613755565b91505092915050565b60008115159050919050565b6137ac81613797565b82525050565b60006020820190506137c760008301846137a3565b92915050565b600081519050919050565b600082825260208201905092915050565b60005b838110156138075780820151818401526020810190506137ec565b60008484015250505050565b6000601f19601f8301169050919050565b600061382f826137cd565b61383981856137d8565b93506138498185602086016137e9565b61385281613813565b840191505092915050565b600060208201905081810360008301526138778184613824565b905092915050565b6000819050919050565b6138928161387f565b811461389d57600080fd5b50565b6000813590506138af81613889565b92915050565b6000602082840312156138cb576138ca613708565b5b60006138d9848285016138a0565b91505092915050565b600073ffffffffffffffffffffffffffffffffffffffff82169050919050565b600061390d826138e2565b9050919050565b61391d81613902565b82525050565b60006020820190506139386000830184613914565b92915050565b61394781613902565b811461395257600080fd5b50565b6000813590506139648161393e565b92915050565b6000806040838503121561398157613980613708565b5b600061398f85828601613955565b92505060206139a0858286016138a0565b9150509250929050565b6139b38161387f565b82525050565b60006020820190506139ce60008301846139aa565b92915050565b600080fd5b600080fd5b7f4e487b7100000000000000000000000000000000000000000000000000000000600052604160045260246000fd5b613a1682613813565b810181811067ffffffffffffffff82111715613a3557613a346139de565b5b80604052505050565b6000613a486136fe565b9050613a548282613a0d565b919050565b600067ffffffffffffffff821115613a7457613a736139de565b5b613a7d82613813565b9050602081019050919050565b82818337600083830152505050565b6000613aac613aa784613a59565b613a3e565b905082815260208101848484011115613ac857613ac76139d9565b5b613ad3848285613a8a565b509392505050565b600082601f830112613af057613aef6139d4565b5b8135613b00848260208601613a99565b91505092915050565b600060208284031215613b1f57613b1e613708565b5b600082013567ffffffffffffffff811115613b3d57613b3c61370d565b5b613b4984828501613adb565b91505092915050565b600080600060608486031215613b6b57613b6a613708565b5b6000613b7986828701613955565b9350506020613b8a86828701613955565b9250506040613b9b868287016138a0565b9150509250925092565b600060208284031215613bbb57613bba613708565b5b6000613bc984828501613955565b91505092915050565b600080600060608486031215613beb57613bea613708565b5b600084013567ffffffffffffffff811115613c0957613c0861370d565b5b613c1586828701613adb565b935050602084013567ffffffffffffffff811115613c3657613c3561370d565b5b613c4286828701613adb565b925050604084013567ffffffffffffffff811115613c6357613c6261370d565b5b613c6f86828701613adb565b9150509250925092565b600067ffffffffffffffff821115613c9457613c936139de565b5b602082029050602081019050919050565b600080fd5b6000613cbd613cb884613c79565b613a3e565b90508083825260208201905060208402830185811115613ce057613cdf613ca5565b5b835b81811015613d095780613cf588826138a0565b845260208401935050602081019050613ce2565b5050509392505050565b600082601f830112613d2857613d276139d4565b5b8135613d38848260208601613caa565b91505092915050565b60008060408385031215613d5857613d57613708565b5b6000613d66858286016138a0565b925050602083013567ffffffffffffffff811115613d8757613d8661370d565b5b613d9385828601613d13565b9150509250929050565b6000606082019050613db260008301866139aa565b8181036020830152613dc48185613824565b9050613dd360408301846137a3565b949350505050565b60008060408385031215613df257613df1613708565b5b6000613e00858286016138a0565b925050602083013567ffffffffffffffff811115613e2157613e2061370d565b5b613e2d85828601613adb565b9150509250929050565b613e4081613797565b8114613e4b57600080fd5b50565b600081359050613e5d81613e37565b92915050565b60008060408385031215613e7a57613e79613708565b5b6000613e8885828601613955565b9250506020613e9985828601613e4e565b9150509250929050565b600067ffffffffffffffff821115613ebe57613ebd6139de565b5b613ec782613813565b9050602081019050919050565b6000613ee7613ee284613ea3565b613a3e565b905082815260208101848484011115613f0357613f026139d9565b5b613f0e848285613a8a565b509392505050565b600082601f830112613f2b57613f2a6139d4565b5b8135613f3b848260208601613ed4565b91505092915050565b60008060008060808587031215613f5e57613f5d613708565b5b6000613f6c87828801613955565b9450506020613f7d87828801613955565b9350506040613f8e878288016138a0565b925050606085013567ffffffffffffffff811115613faf57613fae61370d565b5b613fbb87828801613f16565b91505092959194509250565b60008060408385031215613fde57613fdd613708565b5b6000613fec858286016138a0565b9250506020613ffd85828601613955565b9150509250929050565b600060608201905061401c60008301866139aa565b6140296020830185613914565b818103604083015261403b8184613824565b9050949350505050565b6000806040838503121561405c5761405b613708565b5b600061406a85828601613955565b925050602061407b85828601613955565b9150509250929050565b7f4e487b7100000000000000000000000000000000000000000000000000000000600052602260045260246000fd5b600060028204905060018216806140cc57607f821691505b6020821081036140df576140de614085565b5b50919050565b7f4552433732313a20617070726f76616c20746f2063757272656e74206f776e6560008201527f7200000000000000000000000000000000000000000000000000000000000000602082015250565b60006141416021836137d8565b915061414c826140e5565b604082019050919050565b6000602082019050818103600083015261417081614134565b9050919050565b7f4552433732313a20617070726f76652063616c6c6572206973206e6f7420746f60008201527f6b656e206f776e6572206f7220617070726f76656420666f7220616c6c000000602082015250565b60006141d3603d836137d8565b91506141de82614177565b604082019050919050565b60006020820190508181036000830152614202816141c6565b9050919050565b60008190508160005260206000209050919050565b60006020601f8301049050919050565b600082821b905092915050565b60006008830261426b7fffffffffffffffffffffffffffffffffffffffffffffffffffffffffffffffff8261422e565b614275868361422e565b95508019841693508086168417925050509392505050565b6000819050919050565b60006142b26142ad6142a88461387f565b61428d565b61387f565b9050919050565b6000819050919050565b6142cc83614297565b6142e06142d8826142b9565b84845461423b565b825550505050565b600090565b6142f56142e8565b6143008184846142c3565b505050565b5b81811015614324576143196000826142ed565b600181019050614306565b5050565b601f8211156143695761433a81614209565b6143438461421e565b81016020851015614352578190505b61436661435e8561421e565b830182614305565b50505b505050565b600082821c905092915050565b600061438c6000198460080261436e565b1980831691505092915050565b60006143a5838361437b565b9150826002028217905092915050565b6143be826137cd565b67ffffffffffffffff8111156143d7576143d66139de565b5b6143e182546140b4565b6143ec828285614328565b600060209050601f83116001811461441f576000841561440d578287015190505b6144178582614399565b86555061447f565b601f19841661442d86614209565b60005b8281101561445557848901518255600182019150602085019450602081019050614430565b86831015614472578489015161446e601f89168261437b565b8355505b6001600288020188555050505b505050505050565b7f4552433732313a2063616c6c6572206973206e6f7420746f6b656e206f776e6560008201527f72206f7220617070726f76656400000000000000000000000000000000000000602082015250565b60006144e3602d836137d8565b91506144ee82614487565b604082019050919050565b60006020820190508181036000830152614512816144d6565b9050919050565b7f4f776e61626c653a206e6577206f776e657220697320746865207a65726f206160008201527f6464726573730000000000000000000000000000000000000000000000000000602082015250565b60006145756026836137d8565b915061458082614519565b604082019050919050565b600060208201905081810360008301526145a481614568565b9050919050565b7f455243373231456e756d657261626c653a206f776e657220696e646578206f7560008201527f74206f6620626f756e6473000000000000000000000000000000000000000000602082015250565b6000614607602b836137d8565b9150614612826145ab565b604082019050919050565b60006020820190508181036000830152614636816145fa565b9050919050565b7f4e487b7100000000000000000000000000000000000000000000000000000000600052601160045260246000fd5b60006146778261387f565b91506146828361387f565b925082820190508082111561469a5761469961463d565b5b92915050565b7f4e487b7100000000000000000000000000000000000000000000000000000000600052603260045260246000fd5b60006146da8261387f565b91507fffffffffffffffffffffffffffffffffffffffffffffffffffffffffffffffff820361470c5761470b61463d565b5b600182019050919050565b7f546865206e756d626572206f6620546f6b656e2049447320666f72204e46547360008201527f20646f6573206e6f74206d6174636820746865206e756d626572206f66204e4660208201527f5473000000000000000000000000000000000000000000000000000000000000604082015250565b60006147996042836137d8565b91506147a482614717565b606082019050919050565b600060208201905081810360008301526147c88161478c565b9050919050565b600081519050919050565b600082825260208201905092915050565b6000819050602082019050919050565b6148048161387f565b82525050565b600061481683836147fb565b60208301905092915050565b6000602082019050919050565b600061483a826147cf565b61484481856147da565b935061484f836147eb565b8060005b83811015614880578151614867888261480a565b975061487283614822565b925050600181019050614853565b5085935050505092915050565b600060208201905081810360008301526148a7818461482f565b905092915050565b7f455243373231456e756d657261626c653a20676c6f62616c20696e646578206f60008201527f7574206f6620626f756e64730000000000000000000000000000000000000000602082015250565b600061490b602c836137d8565b9150614916826148af565b604082019050919050565b6000602082019050818103600083015261493a816148fe565b9050919050565b7f5472656173757275204164647265737320697320746865207a65726f2061646460008201527f7265737300000000000000000000000000000000000000000000000000000000602082015250565b600061499d6024836137d8565b91506149a882614941565b604082019050919050565b600060208201905081810360008301526149cc81614990565b9050919050565b7f4552433732313a20696e76616c696420746f6b656e2049440000000000000000600082015250565b6000614a096018836137d8565b9150614a14826149d3565b602082019050919050565b60006020820190508181036000830152614a38816149fc565b9050919050565b7f4552433732313a2061646472657373207a65726f206973206e6f74206120766160008201527f6c6964206f776e65720000000000000000000000000000000000000000000000602082015250565b6000614a9b6029836137d8565b9150614aa682614a3f565b604082019050919050565b60006020820190508181036000830152614aca81614a8e565b9050919050565b7f546f6b656e20494420646f6573206e6f74206578697374210000000000000000600082015250565b6000614b076018836137d8565b9150614b1282614ad1565b602082019050919050565b60006020820190508181036000830152614b3681614afa565b9050919050565b7f546f6b656e20494420616c726561647920657869737473210000000000000000600082015250565b6000614b736018836137d8565b9150614b7e82614b3d565b602082019050919050565b60006020820190508181036000830152614ba281614b66565b9050919050565b6000604082019050614bbe6000830185613914565b614bcb60208301846139aa565b9392505050565b7f4f776e61626c653a2063616c6c6572206973206e6f7420746865206f776e6572600082015250565b6000614c086020836137d8565b9150614c1382614bd2565b602082019050919050565b60006020820190508181036000830152614c3781614bfb565b9050919050565b7f4552433732313a207472616e736665722066726f6d20696e636f72726563742060008201527f6f776e6572000000000000000000000000000000000000000000000000000000602082015250565b6000614c9a6025836137d8565b9150614ca582614c3e565b604082019050919050565b60006020820190508181036000830152614cc981614c8d565b9050919050565b7f4552433732313a207472616e7366657220746f20746865207a65726f2061646460008201527f7265737300000000000000000000000000000000000000000000000000000000602082015250565b6000614d2c6024836137d8565b9150614d3782614cd0565b604082019050919050565b60006020820190508181036000830152614d5b81614d1f565b9050919050565b7f45524337323155524953746f726167653a2055524920736574206f66206e6f6e60008201527f6578697374656e7420746f6b656e000000000000000000000000000000000000602082015250565b6000614dbe602e836137d8565b9150614dc982614d62565b604082019050919050565b60006020820190508181036000830152614ded81614db1565b9050919050565b7f4552433732313a20617070726f766520746f2063616c6c657200000000000000600082015250565b6000614e2a6019836137d8565b9150614e3582614df4565b602082019050919050565b60006020820190508181036000830152614e5981614e1d565b9050919050565b7f4552433732313a207472616e7366657220746f206e6f6e20455243373231526560008201527f63656976657220696d706c656d656e7465720000000000000000000000000000602082015250565b6000614ebc6032836137d8565b9150614ec782614e60565b604082019050919050565b60006020820190508181036000830152614eeb81614eaf565b9050919050565b7f4e487b7100000000000000000000000000000000000000000000000000000000600052601260045260246000fd5b7f5061757361626c653a206e6f7420706175736564000000000000000000000000600082015250565b6000614f576014836137d8565b9150614f6282614f21565b602082019050919050565b60006020820190508181036000830152614f8681614f4a565b9050919050565b7f5061757361626c653a2070617573656400000000000000000000000000000000600082015250565b6000614fc36010836137d8565b9150614fce82614f8d565b602082019050919050565b60006020820190508181036000830152614ff281614fb6565b9050919050565b600081519050919050565b600082825260208201905092915050565b600061502082614ff9565b61502a8185615004565b935061503a8185602086016137e9565b61504381613813565b840191505092915050565b60006080820190506150636000830187613914565b6150706020830186613914565b61507d60408301856139aa565b818103606083015261508f8184615015565b905095945050505050565b6000815190506150a98161373e565b92915050565b6000602082840312156150c5576150c4613708565b5b60006150d38482850161509a565b91505092915050565b7f455243373231456e756d657261626c653a20636f6e736563757469766520747260008201527f616e7366657273206e6f7420737570706f727465640000000000000000000000602082015250565b60006151386035836137d8565b9150615143826150dc565b604082019050919050565b600060208201905081810360008301526151678161512b565b9050919050565b7f4552433732313a206d696e7420746f20746865207a65726f2061646472657373600082015250565b60006151a46020836137d8565b91506151af8261516e565b602082019050919050565b600060208201905081810360008301526151d381615197565b9050919050565b7f4552433732313a20746f6b656e20616c7265616479206d696e74656400000000600082015250565b6000615210601c836137d8565b915061521b826151da565b602082019050919050565b6000602082019050818103600083015261523f81615203565b9050919050565b60006152518261387f565b915061525c8361387f565b92508282039050818111156152745761527361463d565b5b92915050565b7f4e487b7100000000000000000000000000000000000000000000000000000000600052603160045260246000fdfea2646970667358221220e39cbed0ea0ea8a4512b70e2aacb8e99689ccff4dd75dd8ee19be81e8a059b6e64736f6c63430008120033",
  "linkReferences": {},
  "deployedLinkReferences": {}
}